{
  "_format": "hh-sol-artifact-1",
  "contractName": "CredChainLoanPool",
  "sourceName": "contracts/core/Loans/CredchainLoanPool.sol",
  "abi": [
    {
      "inputs": [
        {
          "internalType": "string",
          "name": "_poolName",
          "type": "string"
        },
        {
          "internalType": "address",
          "name": "_acceptedCollateralToken",
          "type": "address"
        },
        {
          "internalType": "address",
          "name": "_financingVault",
          "type": "address"
        },
        {
          "internalType": "address",
          "name": "_locker",
          "type": "address"
        },
        {
          "internalType": "address",
          "name": "_loanBookKeeper",
          "type": "address"
        },
        {
          "internalType": "address",
          "name": "_paymentToken",
          "type": "address"
        }
      ],
      "stateMutability": "nonpayable",
      "type": "constructor"
    },
    {
      "anonymous": false,
      "inputs": [
        {
          "indexed": false,
          "internalType": "bytes32",
          "name": "loanId",
          "type": "bytes32"
        }
      ],
      "name": "CollateralUnlocked",
      "type": "event"
    },
    {
      "anonymous": false,
      "inputs": [
        {
          "components": [
            {
              "internalType": "uint256",
              "name": "amountPaid",
              "type": "uint256"
            },
            {
              "internalType": "uint256",
              "name": "principalPaid",
              "type": "uint256"
            },
            {
              "internalType": "uint256",
              "name": "interestPaid",
              "type": "uint256"
            },
            {
              "internalType": "bytes32",
              "name": "loanId",
              "type": "bytes32"
            },
            {
              "internalType": "uint8",
              "name": "qtdeInstallmentPaying",
              "type": "uint8"
            },
            {
              "internalType": "uint48",
              "name": "paymentDate",
              "type": "uint48"
            }
          ],
          "indexed": false,
          "internalType": "struct LoanPayment",
          "name": "loanPayment",
          "type": "tuple"
        }
      ],
      "name": "LoanPaid",
      "type": "event"
    },
    {
      "anonymous": false,
      "inputs": [
        {
          "components": [
            {
              "internalType": "uint256",
              "name": "amountTaken",
              "type": "uint256"
            },
            {
              "internalType": "uint256",
              "name": "amountPaid",
              "type": "uint256"
            },
            {
              "internalType": "uint256",
              "name": "amountToPay",
              "type": "uint256"
            },
            {
              "internalType": "uint256",
              "name": "principalInstallmentValue",
              "type": "uint256"
            },
            {
              "internalType": "uint256",
              "name": "interestInstallmentValue",
              "type": "uint256"
            },
            {
              "internalType": "address",
              "name": "requester",
              "type": "address"
            },
            {
              "internalType": "uint48",
              "name": "loanStart",
              "type": "uint48"
            },
            {
              "internalType": "uint8",
              "name": "interestRate",
              "type": "uint8"
            },
            {
              "internalType": "uint8",
              "name": "numberOfInstallments",
              "type": "uint8"
            },
            {
              "internalType": "uint8",
              "name": "installmentPaidNum",
              "type": "uint8"
            },
            {
              "internalType": "bytes32",
              "name": "loanId",
              "type": "bytes32"
            },
            {
              "internalType": "bool",
              "name": "loanOpen",
              "type": "bool"
            }
          ],
          "indexed": false,
          "internalType": "struct LoanTicket",
          "name": "loanTicket",
          "type": "tuple"
        }
      ],
      "name": "LoanRequested",
      "type": "event"
    },
    {
      "anonymous": false,
      "inputs": [
        {
          "indexed": true,
          "internalType": "address",
          "name": "previousOwner",
          "type": "address"
        },
        {
          "indexed": true,
          "internalType": "address",
          "name": "newOwner",
          "type": "address"
        }
      ],
      "name": "OwnershipTransferred",
      "type": "event"
    },
    {
      "inputs": [],
      "name": "acceptedCollateralToken",
      "outputs": [
        {
          "internalType": "address",
          "name": "",
          "type": "address"
        }
      ],
      "stateMutability": "view",
      "type": "function"
    },
    {
      "inputs": [],
      "name": "financingVault",
      "outputs": [
        {
          "internalType": "address",
          "name": "",
          "type": "address"
        }
      ],
      "stateMutability": "view",
      "type": "function"
    },
    {
      "inputs": [],
      "name": "loanBookKeeper",
      "outputs": [
        {
          "internalType": "address",
          "name": "",
          "type": "address"
        }
      ],
      "stateMutability": "view",
      "type": "function"
    },
    {
      "inputs": [
        {
          "internalType": "address",
          "name": "",
          "type": "address"
        },
        {
          "internalType": "uint256",
          "name": "",
          "type": "uint256"
        }
      ],
      "name": "loansPerUser",
      "outputs": [
        {
          "internalType": "uint256",
          "name": "amountTaken",
          "type": "uint256"
        },
        {
          "internalType": "uint256",
          "name": "amountPaid",
          "type": "uint256"
        },
        {
          "internalType": "uint256",
          "name": "amountToPay",
          "type": "uint256"
        },
        {
          "internalType": "uint256",
          "name": "principalInstallmentValue",
          "type": "uint256"
        },
        {
          "internalType": "uint256",
          "name": "interestInstallmentValue",
          "type": "uint256"
        },
        {
          "internalType": "address",
          "name": "requester",
          "type": "address"
        },
        {
          "internalType": "uint48",
          "name": "loanStart",
          "type": "uint48"
        },
        {
          "internalType": "uint8",
          "name": "interestRate",
          "type": "uint8"
        },
        {
          "internalType": "uint8",
          "name": "numberOfInstallments",
          "type": "uint8"
        },
        {
          "internalType": "uint8",
          "name": "installmentPaidNum",
          "type": "uint8"
        },
        {
          "internalType": "bytes32",
          "name": "loanId",
          "type": "bytes32"
        },
        {
          "internalType": "bool",
          "name": "loanOpen",
          "type": "bool"
        }
      ],
      "stateMutability": "view",
      "type": "function"
    },
    {
      "inputs": [],
      "name": "locker",
      "outputs": [
        {
          "internalType": "address",
          "name": "",
          "type": "address"
        }
      ],
      "stateMutability": "view",
      "type": "function"
    },
    {
      "inputs": [
        {
          "internalType": "address",
          "name": "",
          "type": "address"
        }
      ],
      "name": "numberOfLoansPerRequester",
      "outputs": [
        {
          "internalType": "uint256",
          "name": "",
          "type": "uint256"
        }
      ],
      "stateMutability": "view",
      "type": "function"
    },
    {
      "inputs": [],
      "name": "owner",
      "outputs": [
        {
          "internalType": "address",
          "name": "",
          "type": "address"
        }
      ],
      "stateMutability": "view",
      "type": "function"
    },
    {
      "inputs": [
        {
          "components": [
            {
              "internalType": "uint256",
              "name": "amountPaid",
              "type": "uint256"
            },
            {
              "internalType": "uint256",
              "name": "principalPaid",
              "type": "uint256"
            },
            {
              "internalType": "uint256",
              "name": "interestPaid",
              "type": "uint256"
            },
            {
              "internalType": "bytes32",
              "name": "loanId",
              "type": "bytes32"
            },
            {
              "internalType": "uint8",
              "name": "qtdeInstallmentPaying",
              "type": "uint8"
            },
            {
              "internalType": "uint48",
              "name": "paymentDate",
              "type": "uint48"
            }
          ],
          "internalType": "struct LoanPayment",
          "name": "loanPayment",
          "type": "tuple"
        }
      ],
      "name": "payLoan",
      "outputs": [],
      "stateMutability": "nonpayable",
      "type": "function"
    },
    {
      "inputs": [],
      "name": "paymentToken",
      "outputs": [
        {
          "internalType": "address",
          "name": "",
          "type": "address"
        }
      ],
      "stateMutability": "view",
      "type": "function"
    },
    {
      "inputs": [],
      "name": "poolName",
      "outputs": [
        {
          "internalType": "string",
          "name": "",
          "type": "string"
        }
      ],
      "stateMutability": "view",
      "type": "function"
    },
    {
      "inputs": [],
      "name": "renounceOwnership",
      "outputs": [],
      "stateMutability": "nonpayable",
      "type": "function"
    },
    {
      "inputs": [
        {
          "components": [
            {
              "internalType": "uint256",
              "name": "amountTaken",
              "type": "uint256"
            },
            {
              "internalType": "uint256",
              "name": "amountPaid",
              "type": "uint256"
            },
            {
              "internalType": "uint256",
              "name": "amountToPay",
              "type": "uint256"
            },
            {
              "internalType": "uint256",
              "name": "principalInstallmentValue",
              "type": "uint256"
            },
            {
              "internalType": "uint256",
              "name": "interestInstallmentValue",
              "type": "uint256"
            },
            {
              "internalType": "address",
              "name": "requester",
              "type": "address"
            },
            {
              "internalType": "uint48",
              "name": "loanStart",
              "type": "uint48"
            },
            {
              "internalType": "uint8",
              "name": "interestRate",
              "type": "uint8"
            },
            {
              "internalType": "uint8",
              "name": "numberOfInstallments",
              "type": "uint8"
            },
            {
              "internalType": "uint8",
              "name": "installmentPaidNum",
              "type": "uint8"
            },
            {
              "internalType": "bytes32",
              "name": "loanId",
              "type": "bytes32"
            },
            {
              "internalType": "bool",
              "name": "loanOpen",
              "type": "bool"
            }
          ],
          "internalType": "struct LoanTicket",
          "name": "loanTicket",
          "type": "tuple"
        }
      ],
      "name": "requestLoan",
      "outputs": [],
      "stateMutability": "nonpayable",
      "type": "function"
    },
    {
      "inputs": [
        {
          "internalType": "address",
          "name": "newOwner",
          "type": "address"
        }
      ],
      "name": "transferOwnership",
      "outputs": [],
      "stateMutability": "nonpayable",
      "type": "function"
    },
    {
      "inputs": [
        {
          "internalType": "bytes32",
          "name": "",
          "type": "bytes32"
        }
      ],
      "name": "usedIds",
      "outputs": [
        {
          "internalType": "bool",
          "name": "",
          "type": "bool"
        }
      ],
      "stateMutability": "view",
      "type": "function"
    }
  ],
  "bytecode": "0x60806040523480156200001157600080fd5b50604051620036483803806200364883398181016040528101906200003791906200047e565b620000576200004b620001ba60201b60201c565b620001c260201b60201c565b856006908162000068919062000784565b5084600160006101000a81548173ffffffffffffffffffffffffffffffffffffffff021916908373ffffffffffffffffffffffffffffffffffffffff16021790555083600260006101000a81548173ffffffffffffffffffffffffffffffffffffffff021916908373ffffffffffffffffffffffffffffffffffffffff16021790555082600360006101000a81548173ffffffffffffffffffffffffffffffffffffffff021916908373ffffffffffffffffffffffffffffffffffffffff16021790555081600460006101000a81548173ffffffffffffffffffffffffffffffffffffffff021916908373ffffffffffffffffffffffffffffffffffffffff16021790555080600560006101000a81548173ffffffffffffffffffffffffffffffffffffffff021916908373ffffffffffffffffffffffffffffffffffffffff1602179055505050505050506200086b565b600033905090565b60008060009054906101000a900473ffffffffffffffffffffffffffffffffffffffff169050816000806101000a81548173ffffffffffffffffffffffffffffffffffffffff021916908373ffffffffffffffffffffffffffffffffffffffff1602179055508173ffffffffffffffffffffffffffffffffffffffff168173ffffffffffffffffffffffffffffffffffffffff167f8be0079c531659141344cd1fd0a4f28419497f9722a3daafe3b4186f6b6457e060405160405180910390a35050565b6000604051905090565b600080fd5b600080fd5b600080fd5b600080fd5b6000601f19601f8301169050919050565b7f4e487b7100000000000000000000000000000000000000000000000000000000600052604160045260246000fd5b620002ef82620002a4565b810181811067ffffffffffffffff82111715620003115762000310620002b5565b5b80604052505050565b60006200032662000286565b9050620003348282620002e4565b919050565b600067ffffffffffffffff821115620003575762000356620002b5565b5b6200036282620002a4565b9050602081019050919050565b60005b838110156200038f57808201518184015260208101905062000372565b60008484015250505050565b6000620003b2620003ac8462000339565b6200031a565b905082815260208101848484011115620003d157620003d06200029f565b5b620003de8482856200036f565b509392505050565b600082601f830112620003fe57620003fd6200029a565b5b8151620004108482602086016200039b565b91505092915050565b600073ffffffffffffffffffffffffffffffffffffffff82169050919050565b6000620004468262000419565b9050919050565b620004588162000439565b81146200046457600080fd5b50565b60008151905062000478816200044d565b92915050565b60008060008060008060c087890312156200049e576200049d62000290565b5b600087015167ffffffffffffffff811115620004bf57620004be62000295565b5b620004cd89828a01620003e6565b9650506020620004e089828a0162000467565b9550506040620004f389828a0162000467565b94505060606200050689828a0162000467565b93505060806200051989828a0162000467565b92505060a06200052c89828a0162000467565b9150509295509295509295565b600081519050919050565b7f4e487b7100000000000000000000000000000000000000000000000000000000600052602260045260246000fd5b600060028204905060018216806200058c57607f821691505b602082108103620005a257620005a162000544565b5b50919050565b60008190508160005260206000209050919050565b60006020601f8301049050919050565b600082821b905092915050565b6000600883026200060c7fffffffffffffffffffffffffffffffffffffffffffffffffffffffffffffffff82620005cd565b620006188683620005cd565b95508019841693508086168417925050509392505050565b6000819050919050565b6000819050919050565b6000620006656200065f620006598462000630565b6200063a565b62000630565b9050919050565b6000819050919050565b620006818362000644565b6200069962000690826200066c565b848454620005da565b825550505050565b600090565b620006b0620006a1565b620006bd81848462000676565b505050565b5b81811015620006e557620006d9600082620006a6565b600181019050620006c3565b5050565b601f8211156200073457620006fe81620005a8565b6200070984620005bd565b8101602085101562000719578190505b620007316200072885620005bd565b830182620006c2565b50505b505050565b600082821c905092915050565b6000620007596000198460080262000739565b1980831691505092915050565b600062000774838362000746565b9150826002028217905092915050565b6200078f8262000539565b67ffffffffffffffff811115620007ab57620007aa620002b5565b5b620007b7825462000573565b620007c4828285620006e9565b600060209050601f831160018114620007fc5760008415620007e7578287015190505b620007f3858262000766565b86555062000863565b601f1984166200080c86620005a8565b60005b8281101562000836578489015182556001820191506020850194506020810190506200080f565b8683101562000856578489015162000852601f89168262000746565b8355505b6001600288020188555050505b505050505050565b612dcd806200087b6000396000f3fe608060405234801561001057600080fd5b50600436106100ea5760003560e01c80638da5cb5b1161008c578063d7b96d4e11610066578063d7b96d4e14610246578063f0847d6c14610264578063f2fde38b14610280578063f3466dfa1461029c576100ea565b80638da5cb5b146101dc578063a4c6d708146101fa578063bd6470001461022a576100ea565b806356b19b00116100c857806356b19b00146101665780636e1152cc14610184578063715018a6146101a25780637eadb31d146101ac576100ea565b80630f8e8465146100ef5780633013ce291461012a5780635238ebca14610148575b600080fd5b61010960048036038101906101049190611650565b6102ba565b6040516101219c9b9a9998979695949392919061171f565b60405180910390f35b61013261038d565b60405161013f91906117d9565b60405180910390f35b6101506103b3565b60405161015d91906117d9565b60405180910390f35b61016e6103d9565b60405161017b91906117d9565b60405180910390f35b61018c6103ff565b60405161019991906117d9565b60405180910390f35b6101aa610425565b005b6101c660048036038101906101c19190611820565b610439565b6040516101d3919061184d565b60405180910390f35b6101e4610459565b6040516101f191906117d9565b60405180910390f35b610214600480360381019061020f9190611868565b610482565b6040516102219190611895565b60405180910390f35b610244600480360381019061023f9190611a39565b61049a565b005b61024e610891565b60405161025b91906117d9565b60405180910390f35b61027e60048036038101906102799190611bb4565b6108b7565b005b61029a60048036038101906102959190611868565b610d0f565b005b6102a4610d92565b6040516102b19190611c61565b60405180910390f35b6008602052816000526040600020602052806000526040600020600091509150508060000154908060010154908060020154908060030154908060040154908060050160009054906101000a900473ffffffffffffffffffffffffffffffffffffffff16908060050160149054906101000a900465ffffffffffff169080600501601a9054906101000a900460ff169080600501601b9054906101000a900460ff169080600501601c9054906101000a900460ff16908060060154908060070160009054906101000a900460ff1690508c565b600560009054906101000a900473ffffffffffffffffffffffffffffffffffffffff1681565b600160009054906101000a900473ffffffffffffffffffffffffffffffffffffffff1681565b600260009054906101000a900473ffffffffffffffffffffffffffffffffffffffff1681565b600460009054906101000a900473ffffffffffffffffffffffffffffffffffffffff1681565b61042d610e20565b6104376000610e9e565b565b60096020528060005260406000206000915054906101000a900460ff1681565b60008060009054906101000a900473ffffffffffffffffffffffffffffffffffffffff16905090565b60076020528060005260406000206000915090505481565b6000600560009054906101000a900473ffffffffffffffffffffffffffffffffffffffff1673ffffffffffffffffffffffffffffffffffffffff166345b14f1233600260009054906101000a900473ffffffffffffffffffffffffffffffffffffffff1685600001516040518463ffffffff1660e01b815260040161052193929190611c83565b6020604051808303816000875af1158015610540573d6000803e3d6000fd5b505050506040513d601f19601f820116820180604052508101906105649190611ccf565b9050806105a6576040517f08c379a000000000000000000000000000000000000000000000000000000000815260040161059d90611d48565b60405180910390fd5b600260009054906101000a900473ffffffffffffffffffffffffffffffffffffffff1673ffffffffffffffffffffffffffffffffffffffff16636df38d6f836000015184606001516040518363ffffffff1660e01b815260040161060b929190611d68565b600060405180830381600087803b15801561062557600080fd5b505af1158015610639573d6000803e3d6000fd5b50505050600460009054906101000a900473ffffffffffffffffffffffffffffffffffffffff1673ffffffffffffffffffffffffffffffffffffffff16635cf626f1836040518263ffffffff1660e01b81526004016106989190611e48565b600060405180830381600087803b1580156106b257600080fd5b505af11580156106c6573d6000803e3d6000fd5b505050506000600460009054906101000a900473ffffffffffffffffffffffffffffffffffffffff1673ffffffffffffffffffffffffffffffffffffffff166306f2206084606001516040518263ffffffff1660e01b815260040161072b9190611e63565b6020604051808303816000875af115801561074a573d6000803e3d6000fd5b505050506040513d601f19601f8201168201806040525081019061076e9190611ccf565b90507f81221dc06fa5ce78dcf73a3a1c77f040583dfc2b0b1f45ca35721c351657dd908360405161079f9190611e48565b60405180910390a1801561088c57600360009054906101000a900473ffffffffffffffffffffffffffffffffffffffff1673ffffffffffffffffffffffffffffffffffffffff1663cea5feb284606001516040518263ffffffff1660e01b815260040161080c9190611e63565b6020604051808303816000875af115801561082b573d6000803e3d6000fd5b505050506040513d601f19601f8201168201806040525081019061084f9190611ccf565b507fd16439c3fbc6de950712bfb3bcae5b121b3404ff3e18aaf88147855c423f2c4783606001516040516108839190611e63565b60405180910390a15b505050565b600360009054906101000a900473ffffffffffffffffffffffffffffffffffffffff1681565b6108c2816009610f62565b50600160096000836101400151815260200190815260200160002060006101000a81548160ff021916908315150217905550600760003373ffffffffffffffffffffffffffffffffffffffff1673ffffffffffffffffffffffffffffffffffffffff168152602001908152602001600020600081548092919061094490611ead565b919050555080600860003373ffffffffffffffffffffffffffffffffffffffff1673ffffffffffffffffffffffffffffffffffffffff1681526020019081526020016000206000600760003373ffffffffffffffffffffffffffffffffffffffff1673ffffffffffffffffffffffffffffffffffffffff168152602001908152602001600020548152602001908152602001600020600082015181600001556020820151816001015560408201518160020155606082015181600301556080820151816004015560a08201518160050160006101000a81548173ffffffffffffffffffffffffffffffffffffffff021916908373ffffffffffffffffffffffffffffffffffffffff16021790555060c08201518160050160146101000a81548165ffffffffffff021916908365ffffffffffff16021790555060e082015181600501601a6101000a81548160ff021916908360ff16021790555061010082015181600501601b6101000a81548160ff021916908360ff16021790555061012082015181600501601c6101000a81548160ff021916908360ff16021790555061014082015181600601556101608201518160070160006101000a81548160ff021916908315150217905550905050600360009054906101000a900473ffffffffffffffffffffffffffffffffffffffff1673ffffffffffffffffffffffffffffffffffffffff1663e7ddd59e82610140015183600001516040518363ffffffff1660e01b8152600401610b77929190611ef5565b6020604051808303816000875af1158015610b96573d6000803e3d6000fd5b505050506040513d601f19601f82011682018060405250810190610bba9190611ccf565b50600260009054906101000a900473ffffffffffffffffffffffffffffffffffffffff1673ffffffffffffffffffffffffffffffffffffffff1663f0847d6c826040518263ffffffff1660e01b8152600401610c169190612032565b600060405180830381600087803b158015610c3057600080fd5b505af1158015610c44573d6000803e3d6000fd5b50505050600460009054906101000a900473ffffffffffffffffffffffffffffffffffffffff1673ffffffffffffffffffffffffffffffffffffffff166394528132826040518263ffffffff1660e01b8152600401610ca39190612032565b600060405180830381600087803b158015610cbd57600080fd5b505af1158015610cd1573d6000803e3d6000fd5b505050507f310443fd0805da1c47b8c248877b848ca2a582d53b67997da47a9db46ef2718781604051610d049190612032565b60405180910390a150565b610d17610e20565b600073ffffffffffffffffffffffffffffffffffffffff168173ffffffffffffffffffffffffffffffffffffffff1603610d86576040517f08c379a0000000000000000000000000000000000000000000000000000000008152600401610d7d906120c0565b60405180910390fd5b610d8f81610e9e565b50565b60068054610d9f9061210f565b80601f0160208091040260200160405190810160405280929190818152602001828054610dcb9061210f565b8015610e185780601f10610ded57610100808354040283529160200191610e18565b820191906000526020600020905b815481529060010190602001808311610dfb57829003601f168201915b505050505081565b610e286115a5565b73ffffffffffffffffffffffffffffffffffffffff16610e46610459565b73ffffffffffffffffffffffffffffffffffffffff1614610e9c576040517f08c379a0000000000000000000000000000000000000000000000000000000008152600401610e939061218c565b60405180910390fd5b565b60008060009054906101000a900473ffffffffffffffffffffffffffffffffffffffff169050816000806101000a81548173ffffffffffffffffffffffffffffffffffffffff021916908373ffffffffffffffffffffffffffffffffffffffff1602179055508173ffffffffffffffffffffffffffffffffffffffff168173ffffffffffffffffffffffffffffffffffffffff167f8be0079c531659141344cd1fd0a4f28419497f9722a3daafe3b4186f6b6457e060405160405180910390a35050565b600080836000015111610faa576040517f08c379a0000000000000000000000000000000000000000000000000000000008152600401610fa19061221e565b60405180910390fd5b6000836040015111610ff1576040517f08c379a0000000000000000000000000000000000000000000000000000000008152600401610fe8906122b0565b60405180910390fd5b60008360e0015160ff161161103b576040517f08c379a000000000000000000000000000000000000000000000000000000000815260040161103290612342565b60405180910390fd5b600083610100015160ff1611611086576040517f08c379a000000000000000000000000000000000000000000000000000000000815260040161107d906123d4565b60405180910390fd5b600073ffffffffffffffffffffffffffffffffffffffff168360a0015173ffffffffffffffffffffffffffffffffffffffff16036110f9576040517f08c379a00000000000000000000000000000000000000000000000000000000081526004016110f090612466565b60405180910390fd5b60008360c0015165ffffffffffff1611611148576040517f08c379a000000000000000000000000000000000000000000000000000000000815260040161113f906124f8565b60405180910390fd5b6000801b83610140015103611192576040517f08c379a000000000000000000000000000000000000000000000000000000000815260040161118990612564565b60405180910390fd5b816000846101400151815260200190815260200160002060009054906101000a900460ff16156111f7576040517f08c379a00000000000000000000000000000000000000000000000000000000081526004016111ee906125d0565b60405180910390fd5b60648360e0015160ff16846000015161121091906125f0565b61121a9190612661565b83600001516112299190612692565b83604001511461126e576040517f08c379a000000000000000000000000000000000000000000000000000000000815260040161126590612738565b60405180910390fd5b600083610100015160ff1684604001516112889190612758565b146112c8576040517f08c379a00000000000000000000000000000000000000000000000000000000081526004016112bf906127fb565b60405180910390fd5b606483610100015160ff1684604001516112e29190612661565b1015611323576040517f08c379a000000000000000000000000000000000000000000000000000000000815260040161131a9061288d565b60405180910390fd5b61271083610100015160ff16846040015161133e9190612661565b111561137f576040517f08c379a00000000000000000000000000000000000000000000000000000000081526004016113769061291f565b60405180910390fd5b612710836000015111156113c8576040517f08c379a00000000000000000000000000000000000000000000000000000000081526004016113bf906129b1565b60405180910390fd5b606483600001511015611410576040517f08c379a000000000000000000000000000000000000000000000000000000000815260040161140790612a43565b60405180910390fd5b60648360e0015160ff16111561145b576040517f08c379a000000000000000000000000000000000000000000000000000000000815260040161145290612ad5565b60405180910390fd5b606483610100015160ff1611156114a7576040517f08c379a000000000000000000000000000000000000000000000000000000000815260040161149e90612b67565b60405180910390fd5b600283610100015160ff1610156114f3576040517f08c379a00000000000000000000000000000000000000000000000000000000081526004016114ea90612bf9565b60405180910390fd5b428360c0015165ffffffffffff161115611542576040517f08c379a000000000000000000000000000000000000000000000000000000000815260040161153990612c8b565b60405180910390fd5b62015180426115519190612cab565b8360c0015165ffffffffffff16101561159f576040517f08c379a000000000000000000000000000000000000000000000000000000000815260040161159690612d77565b60405180910390fd5b92915050565b600033905090565b6000604051905090565b600080fd5b600073ffffffffffffffffffffffffffffffffffffffff82169050919050565b60006115e7826115bc565b9050919050565b6115f7816115dc565b811461160257600080fd5b50565b600081359050611614816115ee565b92915050565b6000819050919050565b61162d8161161a565b811461163857600080fd5b50565b60008135905061164a81611624565b92915050565b60008060408385031215611667576116666115b7565b5b600061167585828601611605565b92505060206116868582860161163b565b9150509250929050565b6116998161161a565b82525050565b6116a8816115dc565b82525050565b600065ffffffffffff82169050919050565b6116c9816116ae565b82525050565b600060ff82169050919050565b6116e5816116cf565b82525050565b6000819050919050565b6116fe816116eb565b82525050565b60008115159050919050565b61171981611704565b82525050565b600061018082019050611735600083018f611690565b611742602083018e611690565b61174f604083018d611690565b61175c606083018c611690565b611769608083018b611690565b61177660a083018a61169f565b61178360c08301896116c0565b61179060e08301886116dc565b61179e6101008301876116dc565b6117ac6101208301866116dc565b6117ba6101408301856116f5565b6117c8610160830184611710565b9d9c50505050505050505050505050565b60006020820190506117ee600083018461169f565b92915050565b6117fd816116eb565b811461180857600080fd5b50565b60008135905061181a816117f4565b92915050565b600060208284031215611836576118356115b7565b5b60006118448482850161180b565b91505092915050565b60006020820190506118626000830184611710565b92915050565b60006020828403121561187e5761187d6115b7565b5b600061188c84828501611605565b91505092915050565b60006020820190506118aa6000830184611690565b92915050565b600080fd5b6000601f19601f8301169050919050565b7f4e487b7100000000000000000000000000000000000000000000000000000000600052604160045260246000fd5b6118fe826118b5565b810181811067ffffffffffffffff8211171561191d5761191c6118c6565b5b80604052505050565b60006119306115ad565b905061193c82826118f5565b919050565b61194a816116cf565b811461195557600080fd5b50565b60008135905061196781611941565b92915050565b611976816116ae565b811461198157600080fd5b50565b6000813590506119938161196d565b92915050565b600060c082840312156119af576119ae6118b0565b5b6119b960c0611926565b905060006119c98482850161163b565b60008301525060206119dd8482850161163b565b60208301525060406119f18482850161163b565b6040830152506060611a058482850161180b565b6060830152506080611a1984828501611958565b60808301525060a0611a2d84828501611984565b60a08301525092915050565b600060c08284031215611a4f57611a4e6115b7565b5b6000611a5d84828501611999565b91505092915050565b611a6f81611704565b8114611a7a57600080fd5b50565b600081359050611a8c81611a66565b92915050565b60006101808284031215611aa957611aa86118b0565b5b611ab4610180611926565b90506000611ac48482850161163b565b6000830152506020611ad88482850161163b565b6020830152506040611aec8482850161163b565b6040830152506060611b008482850161163b565b6060830152506080611b148482850161163b565b60808301525060a0611b2884828501611605565b60a08301525060c0611b3c84828501611984565b60c08301525060e0611b5084828501611958565b60e083015250610100611b6584828501611958565b61010083015250610120611b7b84828501611958565b61012083015250610140611b918482850161180b565b61014083015250610160611ba784828501611a7d565b6101608301525092915050565b60006101808284031215611bcb57611bca6115b7565b5b6000611bd984828501611a92565b91505092915050565b600081519050919050565b600082825260208201905092915050565b60005b83811015611c1c578082015181840152602081019050611c01565b60008484015250505050565b6000611c3382611be2565b611c3d8185611bed565b9350611c4d818560208601611bfe565b611c56816118b5565b840191505092915050565b60006020820190508181036000830152611c7b8184611c28565b905092915050565b6000606082019050611c98600083018661169f565b611ca5602083018561169f565b611cb26040830184611690565b949350505050565b600081519050611cc981611a66565b92915050565b600060208284031215611ce557611ce46115b7565b5b6000611cf384828501611cba565b91505092915050565b7f5472616e73666572206661696c65640000000000000000000000000000000000600082015250565b6000611d32600f83611bed565b9150611d3d82611cfc565b602082019050919050565b60006020820190508181036000830152611d6181611d25565b9050919050565b6000604082019050611d7d6000830185611690565b611d8a60208301846116f5565b9392505050565b611d9a8161161a565b82525050565b611da9816116eb565b82525050565b611db8816116cf565b82525050565b611dc7816116ae565b82525050565b60c082016000820151611de36000850182611d91565b506020820151611df66020850182611d91565b506040820151611e096040850182611d91565b506060820151611e1c6060850182611da0565b506080820151611e2f6080850182611daf565b5060a0820151611e4260a0850182611dbe565b50505050565b600060c082019050611e5d6000830184611dcd565b92915050565b6000602082019050611e7860008301846116f5565b92915050565b7f4e487b7100000000000000000000000000000000000000000000000000000000600052601160045260246000fd5b6000611eb88261161a565b91507fffffffffffffffffffffffffffffffffffffffffffffffffffffffffffffffff8203611eea57611ee9611e7e565b5b600182019050919050565b6000604082019050611f0a60008301856116f5565b611f176020830184611690565b9392505050565b611f27816115dc565b82525050565b611f3681611704565b82525050565b61018082016000820151611f536000850182611d91565b506020820151611f666020850182611d91565b506040820151611f796040850182611d91565b506060820151611f8c6060850182611d91565b506080820151611f9f6080850182611d91565b5060a0820151611fb260a0850182611f1e565b5060c0820151611fc560c0850182611dbe565b5060e0820151611fd860e0850182611daf565b50610100820151611fed610100850182611daf565b50610120820151612002610120850182611daf565b50610140820151612017610140850182611da0565b5061016082015161202c610160850182611f2d565b50505050565b6000610180820190506120486000830184611f3c565b92915050565b7f4f776e61626c653a206e6577206f776e657220697320746865207a65726f206160008201527f6464726573730000000000000000000000000000000000000000000000000000602082015250565b60006120aa602683611bed565b91506120b58261204e565b604082019050919050565b600060208201905081810360008301526120d98161209d565b9050919050565b7f4e487b7100000000000000000000000000000000000000000000000000000000600052602260045260246000fd5b6000600282049050600182168061212757607f821691505b60208210810361213a576121396120e0565b5b50919050565b7f4f776e61626c653a2063616c6c6572206973206e6f7420746865206f776e6572600082015250565b6000612176602083611bed565b915061218182612140565b602082019050919050565b600060208201905081810360008301526121a581612169565b9050919050565b7f416d6f756e742074616b656e206d75737420626520677265617465722074686160008201527f6e20300000000000000000000000000000000000000000000000000000000000602082015250565b6000612208602383611bed565b9150612213826121ac565b604082019050919050565b60006020820190508181036000830152612237816121fb565b9050919050565b7f416d6f756e7420746f20706179206d757374206265206772656174657220746860008201527f616e203000000000000000000000000000000000000000000000000000000000602082015250565b600061229a602483611bed565b91506122a58261223e565b604082019050919050565b600060208201905081810360008301526122c98161228d565b9050919050565b7f496e7465726573742072617465206d757374206265206772656174657220746860008201527f616e203000000000000000000000000000000000000000000000000000000000602082015250565b600061232c602483611bed565b9150612337826122d0565b604082019050919050565b6000602082019050818103600083015261235b8161231f565b9050919050565b7f4e756d626572206f6620696e7374616c6c6d656e7473206d757374206265206760008201527f726561746572207468616e203000000000000000000000000000000000000000602082015250565b60006123be602d83611bed565b91506123c982612362565b604082019050919050565b600060208201905081810360008301526123ed816123b1565b9050919050565b7f526571756573746572206d75737420626520612076616c69642061646472657360008201527f7300000000000000000000000000000000000000000000000000000000000000602082015250565b6000612450602183611bed565b915061245b826123f4565b604082019050919050565b6000602082019050818103600083015261247f81612443565b9050919050565b7f4c6f616e207374617274206d7573742062652067726561746572207468616e2060008201527f3000000000000000000000000000000000000000000000000000000000000000602082015250565b60006124e2602183611bed565b91506124ed82612486565b604082019050919050565b60006020820190508181036000830152612511816124d5565b9050919050565b7f4964206d75737420626520612076616c69642062797465733332000000000000600082015250565b600061254e601a83611bed565b915061255982612518565b602082019050919050565b6000602082019050818103600083015261257d81612541565b9050919050565b7f4964206d75737420626520756e69717565000000000000000000000000000000600082015250565b60006125ba601183611bed565b91506125c582612584565b602082019050919050565b600060208201905081810360008301526125e9816125ad565b9050919050565b60006125fb8261161a565b91506126068361161a565b92508282026126148161161a565b9150828204841483151761262b5761262a611e7e565b5b5092915050565b7f4e487b7100000000000000000000000000000000000000000000000000000000600052601260045260246000fd5b600061266c8261161a565b91506126778361161a565b92508261268757612686612632565b5b828204905092915050565b600061269d8261161a565b91506126a88361161a565b92508282019050808211156126c0576126bf611e7e565b5b92915050565b7f416d6f756e7420746f20706179206d75737420626520657175616c20746f206160008201527f6d6f756e742074616b656e20706c757320696e74657265737400000000000000602082015250565b6000612722603983611bed565b915061272d826126c6565b604082019050919050565b6000602082019050818103600083015261275181612715565b9050919050565b60006127638261161a565b915061276e8361161a565b92508261277e5761277d612632565b5b828206905092915050565b7f416d6f756e7420746f20706179206d75737420626520646976697369626c652060008201527f6279206e756d626572206f6620696e7374616c6c6d656e747300000000000000602082015250565b60006127e5603983611bed565b91506127f082612789565b604082019050919050565b60006020820190508181036000830152612814816127d8565b9050919050565b7f496e7374616c6c6d656e742076616c7565206d7573742062652067726561746560008201527f72207468616e2031303000000000000000000000000000000000000000000000602082015250565b6000612877602a83611bed565b91506128828261281b565b604082019050919050565b600060208201905081810360008301526128a68161286a565b9050919050565b7f496e7374616c6c6d656e742076616c7565206d757374206265206c657373207460008201527f68616e2031303030300000000000000000000000000000000000000000000000602082015250565b6000612909602983611bed565b9150612914826128ad565b604082019050919050565b60006020820190508181036000830152612938816128fc565b9050919050565b7f416d6f756e742074616b656e206d757374206265206c657373207468616e203160008201527f3030303000000000000000000000000000000000000000000000000000000000602082015250565b600061299b602483611bed565b91506129a68261293f565b604082019050919050565b600060208201905081810360008301526129ca8161298e565b9050919050565b7f416d6f756e742074616b656e206d75737420626520677265617465722074686160008201527f6e20313030000000000000000000000000000000000000000000000000000000602082015250565b6000612a2d602583611bed565b9150612a38826129d1565b604082019050919050565b60006020820190508181036000830152612a5c81612a20565b9050919050565b7f496e7465726573742072617465206d757374206265206c657373207468616e2060008201527f3130300000000000000000000000000000000000000000000000000000000000602082015250565b6000612abf602383611bed565b9150612aca82612a63565b604082019050919050565b60006020820190508181036000830152612aee81612ab2565b9050919050565b7f4e756d626572206f6620696e7374616c6c6d656e7473206d757374206265206c60008201527f657373207468616e203130300000000000000000000000000000000000000000602082015250565b6000612b51602c83611bed565b9150612b5c82612af5565b604082019050919050565b60006020820190508181036000830152612b8081612b44565b9050919050565b7f4e756d626572206f6620696e7374616c6c6d656e7473206d757374206265206760008201527f726561746572207468616e203200000000000000000000000000000000000000602082015250565b6000612be3602d83611bed565b9150612bee82612b87565b604082019050919050565b60006020820190508181036000830152612c1281612bd6565b9050919050565b7f4c6f616e207374617274206d757374206265206c657373207468616e206f722060008201527f657175616c20746f2063757272656e7420626c6f636b2074696d657374616d70602082015250565b6000612c75604083611bed565b9150612c8082612c19565b604082019050919050565b60006020820190508181036000830152612ca481612c68565b9050919050565b6000612cb68261161a565b9150612cc18361161a565b9250828203905081811115612cd957612cd8611e7e565b5b92915050565b7f4c6f616e207374617274206d7573742062652067726561746572207468616e2060008201527f6f7220657175616c20746f2063757272656e7420626c6f636b2074696d65737460208201527f616d70206d696e75730000000000000000000000000000000000000000000000604082015250565b6000612d61604983611bed565b9150612d6c82612cdf565b606082019050919050565b60006020820190508181036000830152612d9081612d54565b905091905056fea26469706673582212200d8ac17308a8dfc19502798741ee22d49f48325115eeb1d677cc08c98084ce4a64736f6c63430008140033",
  "linkReferences": {},
  "deployedLinkReferences": {}
}