{
  "_format": "hh-sol-artifact-1",
  "contractName": "CredchainLocker",
  "sourceName": "contracts/core/Locker/Locker.sol",
  "abi": [
    {
      "inputs": [
        {
          "internalType": "address",
          "name": "",
          "type": "address"
        },
        {
          "internalType": "address",
          "name": "",
          "type": "address"
        },
        {
          "internalType": "uint256",
          "name": "",
          "type": "uint256"
        }
      ],
      "name": "collateral1155",
      "outputs": [
        {
          "internalType": "address",
          "name": "tokenAddress",
          "type": "address"
        },
        {
          "internalType": "uint256",
          "name": "tokenId",
          "type": "uint256"
        },
        {
          "internalType": "uint256",
          "name": "amountLocked",
          "type": "uint256"
        }
      ],
      "stateMutability": "view",
      "type": "function"
    },
    {
      "inputs": [
        {
          "internalType": "address",
          "name": "",
          "type": "address"
        },
        {
          "internalType": "address",
          "name": "",
          "type": "address"
        },
        {
          "internalType": "uint256",
          "name": "",
          "type": "uint256"
        }
      ],
      "name": "collateral721",
      "outputs": [
        {
          "internalType": "address",
          "name": "tokenAddress",
          "type": "address"
        },
        {
          "internalType": "uint256",
          "name": "tokenId",
          "type": "uint256"
        },
        {
          "internalType": "bool",
          "name": "used",
          "type": "bool"
        }
      ],
      "stateMutability": "view",
      "type": "function"
    },
    {
      "inputs": [
        {
          "internalType": "address",
          "name": "tokenAddress",
          "type": "address"
        },
        {
          "internalType": "address",
          "name": "depositor",
          "type": "address"
        },
        {
          "internalType": "uint256",
          "name": "tokenId",
          "type": "uint256"
        },
        {
          "internalType": "uint256",
          "name": "amount",
          "type": "uint256"
        }
      ],
      "name": "depositERC1155Collateral",
      "outputs": [],
      "stateMutability": "payable",
      "type": "function"
    },
    {
      "inputs": [
        {
          "internalType": "address",
          "name": "tokenAddress",
          "type": "address"
        },
        {
          "internalType": "address",
          "name": "depositor",
          "type": "address"
        },
        {
          "internalType": "uint256",
          "name": "tokenId",
          "type": "uint256"
        }
      ],
      "name": "depositERC721Collateral",
      "outputs": [],
      "stateMutability": "payable",
      "type": "function"
    }
  ],
  "bytecode": "0x608060405234801561001057600080fd5b5061080c806100206000396000f3fe60806040526004361061003f5760003560e01c806341522f091461004457806352aa9f98146100835780638562356c1461009f578063cbe477da146100bb575b600080fd5b34801561005057600080fd5b5061006b600480360381019061006691906105af565b6100fa565b60405161007a93929190610620565b60405180910390f35b61009d600480360381019061009891906105af565b61015e565b005b6100b960048036038101906100b49190610657565b61030c565b005b3480156100c757600080fd5b506100e260048036038101906100dd91906105af565b6104a5565b6040516100f1939291906106d9565b60405180910390f35b600160205282600052604060002060205281600052604060002060205280600052604060002060009250925050508060000160009054906101000a900473ffffffffffffffffffffffffffffffffffffffff16908060010154908060020154905083565b8273ffffffffffffffffffffffffffffffffffffffff166342842e0e8330846040518463ffffffff1660e01b815260040161019b93929190610710565b600060405180830381600087803b1580156101b557600080fd5b505af11580156101c9573d6000803e3d6000fd5b50505050600060405180606001604052808573ffffffffffffffffffffffffffffffffffffffff168152602001838152602001600115158152509050806000808573ffffffffffffffffffffffffffffffffffffffff1673ffffffffffffffffffffffffffffffffffffffff16815260200190815260200160002060008673ffffffffffffffffffffffffffffffffffffffff1673ffffffffffffffffffffffffffffffffffffffff168152602001908152602001600020600084815260200190815260200160002060008201518160000160006101000a81548173ffffffffffffffffffffffffffffffffffffffff021916908373ffffffffffffffffffffffffffffffffffffffff1602179055506020820151816001015560408201518160020160006101000a81548160ff02191690831515021790555090505050505050565b8373ffffffffffffffffffffffffffffffffffffffff1663f242432a843085856040518563ffffffff1660e01b815260040161034b949392919061077e565b600060405180830381600087803b15801561036557600080fd5b505af1158015610379573d6000803e3d6000fd5b50505050600060405180606001604052808673ffffffffffffffffffffffffffffffffffffffff16815260200184815260200183815250905080600160008673ffffffffffffffffffffffffffffffffffffffff1673ffffffffffffffffffffffffffffffffffffffff16815260200190815260200160002060008773ffffffffffffffffffffffffffffffffffffffff1673ffffffffffffffffffffffffffffffffffffffff168152602001908152602001600020600085815260200190815260200160002060008201518160000160006101000a81548173ffffffffffffffffffffffffffffffffffffffff021916908373ffffffffffffffffffffffffffffffffffffffff16021790555060208201518160010155604082015181600201559050505050505050565b600060205282600052604060002060205281600052604060002060205280600052604060002060009250925050508060000160009054906101000a900473ffffffffffffffffffffffffffffffffffffffff16908060010154908060020160009054906101000a900460ff16905083565b600080fd5b600073ffffffffffffffffffffffffffffffffffffffff82169050919050565b60006105468261051b565b9050919050565b6105568161053b565b811461056157600080fd5b50565b6000813590506105738161054d565b92915050565b6000819050919050565b61058c81610579565b811461059757600080fd5b50565b6000813590506105a981610583565b92915050565b6000806000606084860312156105c8576105c7610516565b5b60006105d686828701610564565b93505060206105e786828701610564565b92505060406105f88682870161059a565b9150509250925092565b61060b8161053b565b82525050565b61061a81610579565b82525050565b60006060820190506106356000830186610602565b6106426020830185610611565b61064f6040830184610611565b949350505050565b6000806000806080858703121561067157610670610516565b5b600061067f87828801610564565b945050602061069087828801610564565b93505060406106a18782880161059a565b92505060606106b28782880161059a565b91505092959194509250565b60008115159050919050565b6106d3816106be565b82525050565b60006060820190506106ee6000830186610602565b6106fb6020830185610611565b61070860408301846106ca565b949350505050565b60006060820190506107256000830186610602565b6107326020830185610602565b61073f6040830184610611565b949350505050565b600082825260208201905092915050565b50565b6000610768600083610747565b915061077382610758565b600082019050919050565b600060a0820190506107936000830187610602565b6107a06020830186610602565b6107ad6040830185610611565b6107ba6060830184610611565b81810360808301526107cb8161075b565b90509594505050505056fea2646970667358221220683f0ff3f5f3e6ff1adac86c680c1a41589f2dcb293b09b97c269b555955278364736f6c63430008140033",
  "linkReferences": {},
  "deployedLinkReferences": {}
}