{
  "_format": "hh-sol-artifact-1",
  "contractName": "LoanBookKeeper",
  "sourceName": "contracts/core/Loans/LoanBookKeeper.sol",
  "abi": [
    {
      "inputs": [
        {
          "components": [
            {
              "internalType": "uint256",
              "name": "amountTaken",
              "type": "uint256"
            },
            {
              "internalType": "uint256",
              "name": "amountPaid",
              "type": "uint256"
            },
            {
              "internalType": "uint256",
              "name": "amountToPay",
              "type": "uint256"
            },
            {
              "internalType": "uint256",
              "name": "principalInstallmentValue",
              "type": "uint256"
            },
            {
              "internalType": "uint256",
              "name": "interestInstallmentValue",
              "type": "uint256"
            },
            {
              "internalType": "address",
              "name": "requester",
              "type": "address"
            },
            {
              "internalType": "uint48",
              "name": "loanStart",
              "type": "uint48"
            },
            {
              "internalType": "uint8",
              "name": "interestRate",
              "type": "uint8"
            },
            {
              "internalType": "uint8",
              "name": "numberOfInstallments",
              "type": "uint8"
            },
            {
              "internalType": "uint8",
              "name": "installmentPaidNum",
              "type": "uint8"
            },
            {
              "internalType": "bytes32",
              "name": "loanId",
              "type": "bytes32"
            },
            {
              "internalType": "bool",
              "name": "loanOpen",
              "type": "bool"
            }
          ],
          "internalType": "struct LoanTicket",
          "name": "loanTicket",
          "type": "tuple"
        }
      ],
      "name": "addNewLoan",
      "outputs": [],
      "stateMutability": "nonpayable",
      "type": "function"
    },
    {
      "inputs": [
        {
          "components": [
            {
              "internalType": "uint256",
              "name": "amountPaid",
              "type": "uint256"
            },
            {
              "internalType": "uint256",
              "name": "principalPaid",
              "type": "uint256"
            },
            {
              "internalType": "uint256",
              "name": "interestPaid",
              "type": "uint256"
            },
            {
              "internalType": "bytes32",
              "name": "loanId",
              "type": "bytes32"
            },
            {
              "internalType": "uint8",
              "name": "qtdeInstallmentPaying",
              "type": "uint8"
            },
            {
              "internalType": "uint48",
              "name": "paymentDate",
              "type": "uint48"
            }
          ],
          "internalType": "struct LoanPayment",
          "name": "loanPayment",
          "type": "tuple"
        }
      ],
      "name": "addNewLoanPayment",
      "outputs": [],
      "stateMutability": "nonpayable",
      "type": "function"
    },
    {
      "inputs": [
        {
          "internalType": "string",
          "name": "poolName",
          "type": "string"
        },
        {
          "internalType": "address",
          "name": "poolAddress",
          "type": "address"
        }
      ],
      "name": "addNewPool",
      "outputs": [],
      "stateMutability": "nonpayable",
      "type": "function"
    },
    {
      "inputs": [
        {
          "internalType": "bytes32",
          "name": "loanId",
          "type": "bytes32"
        }
      ],
      "name": "getLoanInfo",
      "outputs": [
        {
          "components": [
            {
              "internalType": "uint256",
              "name": "amountTaken",
              "type": "uint256"
            },
            {
              "internalType": "uint256",
              "name": "amountPaid",
              "type": "uint256"
            },
            {
              "internalType": "uint256",
              "name": "amountToPay",
              "type": "uint256"
            },
            {
              "internalType": "uint256",
              "name": "principalInstallmentValue",
              "type": "uint256"
            },
            {
              "internalType": "uint256",
              "name": "interestInstallmentValue",
              "type": "uint256"
            },
            {
              "internalType": "address",
              "name": "requester",
              "type": "address"
            },
            {
              "internalType": "uint48",
              "name": "loanStart",
              "type": "uint48"
            },
            {
              "internalType": "uint8",
              "name": "interestRate",
              "type": "uint8"
            },
            {
              "internalType": "uint8",
              "name": "numberOfInstallments",
              "type": "uint8"
            },
            {
              "internalType": "uint8",
              "name": "installmentPaidNum",
              "type": "uint8"
            },
            {
              "internalType": "bytes32",
              "name": "loanId",
              "type": "bytes32"
            },
            {
              "internalType": "bool",
              "name": "loanOpen",
              "type": "bool"
            }
          ],
          "internalType": "struct LoanTicket",
          "name": "",
          "type": "tuple"
        }
      ],
      "stateMutability": "view",
      "type": "function"
    },
    {
      "inputs": [],
      "name": "getPools",
      "outputs": [
        {
          "components": [
            {
              "internalType": "string",
              "name": "poolName",
              "type": "string"
            },
            {
              "internalType": "address",
              "name": "poolAddress",
              "type": "address"
            }
          ],
          "internalType": "struct Pools[]",
          "name": "",
          "type": "tuple[]"
        }
      ],
      "stateMutability": "view",
      "type": "function"
    },
    {
      "inputs": [
        {
          "internalType": "bytes32",
          "name": "",
          "type": "bytes32"
        }
      ],
      "name": "installmentPaid",
      "outputs": [
        {
          "internalType": "uint8",
          "name": "",
          "type": "uint8"
        }
      ],
      "stateMutability": "view",
      "type": "function"
    },
    {
      "inputs": [
        {
          "internalType": "bytes32",
          "name": "loanId",
          "type": "bytes32"
        }
      ],
      "name": "isLoanPaid",
      "outputs": [
        {
          "internalType": "bool",
          "name": "",
          "type": "bool"
        }
      ],
      "stateMutability": "view",
      "type": "function"
    },
    {
      "inputs": [
        {
          "internalType": "bytes32",
          "name": "",
          "type": "bytes32"
        },
        {
          "internalType": "uint256",
          "name": "",
          "type": "uint256"
        }
      ],
      "name": "loanPayments",
      "outputs": [
        {
          "internalType": "uint256",
          "name": "amountPaid",
          "type": "uint256"
        },
        {
          "internalType": "uint256",
          "name": "principalPaid",
          "type": "uint256"
        },
        {
          "internalType": "uint256",
          "name": "interestPaid",
          "type": "uint256"
        },
        {
          "internalType": "bytes32",
          "name": "loanId",
          "type": "bytes32"
        },
        {
          "internalType": "uint8",
          "name": "qtdeInstallmentPaying",
          "type": "uint8"
        },
        {
          "internalType": "uint48",
          "name": "paymentDate",
          "type": "uint48"
        }
      ],
      "stateMutability": "view",
      "type": "function"
    },
    {
      "inputs": [
        {
          "internalType": "bytes32",
          "name": "",
          "type": "bytes32"
        }
      ],
      "name": "loanTickets",
      "outputs": [
        {
          "internalType": "uint256",
          "name": "amountTaken",
          "type": "uint256"
        },
        {
          "internalType": "uint256",
          "name": "amountPaid",
          "type": "uint256"
        },
        {
          "internalType": "uint256",
          "name": "amountToPay",
          "type": "uint256"
        },
        {
          "internalType": "uint256",
          "name": "principalInstallmentValue",
          "type": "uint256"
        },
        {
          "internalType": "uint256",
          "name": "interestInstallmentValue",
          "type": "uint256"
        },
        {
          "internalType": "address",
          "name": "requester",
          "type": "address"
        },
        {
          "internalType": "uint48",
          "name": "loanStart",
          "type": "uint48"
        },
        {
          "internalType": "uint8",
          "name": "interestRate",
          "type": "uint8"
        },
        {
          "internalType": "uint8",
          "name": "numberOfInstallments",
          "type": "uint8"
        },
        {
          "internalType": "uint8",
          "name": "installmentPaidNum",
          "type": "uint8"
        },
        {
          "internalType": "bytes32",
          "name": "loanId",
          "type": "bytes32"
        },
        {
          "internalType": "bool",
          "name": "loanOpen",
          "type": "bool"
        }
      ],
      "stateMutability": "view",
      "type": "function"
    },
    {
      "inputs": [
        {
          "internalType": "uint256",
          "name": "",
          "type": "uint256"
        }
      ],
      "name": "pools",
      "outputs": [
        {
          "internalType": "string",
          "name": "poolName",
          "type": "string"
        },
        {
          "internalType": "address",
          "name": "poolAddress",
          "type": "address"
        }
      ],
      "stateMutability": "view",
      "type": "function"
    }
  ],
  "bytecode": "0x608060405234801561001057600080fd5b50611ba9806100206000396000f3fe608060405234801561001057600080fd5b506004361061009e5760003560e01c8063803b97ca11610066578063803b97ca1461017257806394528132146101ad578063ac4afa38146101c9578063b6157090146101fa578063eeade68f1461022a5761009e565b806306f22060146100a357806334fd7947146100d35780634b712e21146101085780635cf626f114610138578063673a2a1f14610154575b600080fd5b6100bd60048036038101906100b89190610c65565b610246565b6040516100ca9190610cad565b60405180910390f35b6100ed60048036038101906100e89190610cfe565b610272565b6040516100ff96959493929190610d99565b60405180910390f35b610122600480360381019061011d9190610c65565b6102ea565b60405161012f9190610dfa565b60405180910390f35b610152600480360381019061014d9190610f9e565b61030a565b005b61015c610316565b604051610169919061118a565b60405180910390f35b61018c60048036038101906101879190610c65565b61045d565b6040516101a49c9b9a999897969594939291906111bb565b60405180910390f35b6101c760048036038101906101c291906113ef565b610523565b005b6101e360048036038101906101de919061141d565b610676565b6040516101f1929190611494565b60405180910390f35b610214600480360381019061020f9190610c65565b610752565b6040516102219190611605565b60405180910390f35b610244600480360381019061023f91906116db565b6108af565b005b600080600083815260200190815260200160002060070160009054906101000a900460ff169050919050565b6001602052816000526040600020818154811061028e57600080fd5b9060005260206000209060050201600091509150508060000154908060010154908060020154908060030154908060040160009054906101000a900460ff16908060040160019054906101000a900465ffffffffffff16905086565b60026020528060005260406000206000915054906101000a900460ff1681565b61031381610968565b50565b60606003805480602002602001604051908101604052809291908181526020016000905b82821015610454578382906000526020600020906002020160405180604001604052908160008201805461036d90611766565b80601f016020809104026020016040519081016040528092919081815260200182805461039990611766565b80156103e65780601f106103bb576101008083540402835291602001916103e6565b820191906000526020600020905b8154815290600101906020018083116103c957829003601f168201915b505050505081526020016001820160009054906101000a900473ffffffffffffffffffffffffffffffffffffffff1673ffffffffffffffffffffffffffffffffffffffff1673ffffffffffffffffffffffffffffffffffffffff16815250508152602001906001019061033a565b50505050905090565b60006020528060005260406000206000915090508060000154908060010154908060020154908060030154908060040154908060050160009054906101000a900473ffffffffffffffffffffffffffffffffffffffff16908060050160149054906101000a900465ffffffffffff169080600501601a9054906101000a900460ff169080600501601b9054906101000a900460ff169080600501601c9054906101000a900460ff16908060060154908060070160009054906101000a900460ff1690508c565b806000808361014001518152602001908152602001600020600082015181600001556020820151816001015560408201518160020155606082015181600301556080820151816004015560a08201518160050160006101000a81548173ffffffffffffffffffffffffffffffffffffffff021916908373ffffffffffffffffffffffffffffffffffffffff16021790555060c08201518160050160146101000a81548165ffffffffffff021916908365ffffffffffff16021790555060e082015181600501601a6101000a81548160ff021916908360ff16021790555061010082015181600501601b6101000a81548160ff021916908360ff16021790555061012082015181600501601c6101000a81548160ff021916908360ff16021790555061014082015181600601556101608201518160070160006101000a81548160ff02191690831515021790555090505050565b6003818154811061068657600080fd5b90600052602060002090600202016000915090508060000180546106a990611766565b80601f01602080910402602001604051908101604052809291908181526020018280546106d590611766565b80156107225780601f106106f757610100808354040283529160200191610722565b820191906000526020600020905b81548152906001019060200180831161070557829003601f168201915b5050505050908060010160009054906101000a900473ffffffffffffffffffffffffffffffffffffffff16905082565b61075a610b8e565b6000808381526020019081526020016000206040518061018001604052908160008201548152602001600182015481526020016002820154815260200160038201548152602001600482015481526020016005820160009054906101000a900473ffffffffffffffffffffffffffffffffffffffff1673ffffffffffffffffffffffffffffffffffffffff1673ffffffffffffffffffffffffffffffffffffffff1681526020016005820160149054906101000a900465ffffffffffff1665ffffffffffff1665ffffffffffff16815260200160058201601a9054906101000a900460ff1660ff1660ff16815260200160058201601b9054906101000a900460ff1660ff1660ff16815260200160058201601c9054906101000a900460ff1660ff1660ff168152602001600682015481526020016007820160009054906101000a900460ff1615151515815250509050919050565b600360405180604001604052808481526020018373ffffffffffffffffffffffffffffffffffffffff168152509080600181540180825580915050600190039060005260206000209060020201600090919091909150600082015181600001908161091a9190611943565b5060208201518160010160006101000a81548173ffffffffffffffffffffffffffffffffffffffff021916908373ffffffffffffffffffffffffffffffffffffffff16021790555050505050565b6000806000836060015181526020019081526020016000209050816000015181600101600082825461099a9190611a44565b92505081905550600082600001518260020160008282546109bb9190611a78565b9250508190551015610a02576040517f08c379a00000000000000000000000000000000000000000000000000000000081526004016109f990611b1e565b60405180910390fd5b8160000151816002016000828254610a1a9190611a78565b92505081905550816080015181600501601c8282829054906101000a900460ff16610a459190611b3e565b92506101000a81548160ff021916908360ff16021790555060016000836060015181526020019081526020016000208290806001815401808255809150506001900390600052602060002090600502016000909190919091506000820151816000015560208201518160010155604082015181600201556060820151816003015560808201518160040160006101000a81548160ff021916908360ff16021790555060a08201518160040160016101000a81548165ffffffffffff021916908365ffffffffffff16021790555050506000816002015403610b3e5760008160070160006101000a81548160ff0219169083151502179055505b6001600260008460600151815260200190815260200160002060008282829054906101000a900460ff16610b729190611b3e565b92506101000a81548160ff021916908360ff1602179055505050565b6040518061018001604052806000815260200160008152602001600081526020016000815260200160008152602001600073ffffffffffffffffffffffffffffffffffffffff168152602001600065ffffffffffff168152602001600060ff168152602001600060ff168152602001600060ff168152602001600080191681526020016000151581525090565b6000604051905090565b600080fd5b600080fd5b6000819050919050565b610c4281610c2f565b8114610c4d57600080fd5b50565b600081359050610c5f81610c39565b92915050565b600060208284031215610c7b57610c7a610c25565b5b6000610c8984828501610c50565b91505092915050565b60008115159050919050565b610ca781610c92565b82525050565b6000602082019050610cc26000830184610c9e565b92915050565b6000819050919050565b610cdb81610cc8565b8114610ce657600080fd5b50565b600081359050610cf881610cd2565b92915050565b60008060408385031215610d1557610d14610c25565b5b6000610d2385828601610c50565b9250506020610d3485828601610ce9565b9150509250929050565b610d4781610cc8565b82525050565b610d5681610c2f565b82525050565b600060ff82169050919050565b610d7281610d5c565b82525050565b600065ffffffffffff82169050919050565b610d9381610d78565b82525050565b600060c082019050610dae6000830189610d3e565b610dbb6020830188610d3e565b610dc86040830187610d3e565b610dd56060830186610d4d565b610de26080830185610d69565b610def60a0830184610d8a565b979650505050505050565b6000602082019050610e0f6000830184610d69565b92915050565b600080fd5b6000601f19601f8301169050919050565b7f4e487b7100000000000000000000000000000000000000000000000000000000600052604160045260246000fd5b610e6382610e1a565b810181811067ffffffffffffffff82111715610e8257610e81610e2b565b5b80604052505050565b6000610e95610c1b565b9050610ea18282610e5a565b919050565b610eaf81610d5c565b8114610eba57600080fd5b50565b600081359050610ecc81610ea6565b92915050565b610edb81610d78565b8114610ee657600080fd5b50565b600081359050610ef881610ed2565b92915050565b600060c08284031215610f1457610f13610e15565b5b610f1e60c0610e8b565b90506000610f2e84828501610ce9565b6000830152506020610f4284828501610ce9565b6020830152506040610f5684828501610ce9565b6040830152506060610f6a84828501610c50565b6060830152506080610f7e84828501610ebd565b60808301525060a0610f9284828501610ee9565b60a08301525092915050565b600060c08284031215610fb457610fb3610c25565b5b6000610fc284828501610efe565b91505092915050565b600081519050919050565b600082825260208201905092915050565b6000819050602082019050919050565b600081519050919050565b600082825260208201905092915050565b60005b83811015611031578082015181840152602081019050611016565b60008484015250505050565b600061104882610ff7565b6110528185611002565b9350611062818560208601611013565b61106b81610e1a565b840191505092915050565b600073ffffffffffffffffffffffffffffffffffffffff82169050919050565b60006110a182611076565b9050919050565b6110b181611096565b82525050565b600060408301600083015184820360008601526110d4828261103d565b91505060208301516110e960208601826110a8565b508091505092915050565b600061110083836110b7565b905092915050565b6000602082019050919050565b600061112082610fcb565b61112a8185610fd6565b93508360208202850161113c85610fe7565b8060005b85811015611178578484038952815161115985826110f4565b945061116483611108565b925060208a01995050600181019050611140565b50829750879550505050505092915050565b600060208201905081810360008301526111a48184611115565b905092915050565b6111b581611096565b82525050565b6000610180820190506111d1600083018f610d3e565b6111de602083018e610d3e565b6111eb604083018d610d3e565b6111f8606083018c610d3e565b611205608083018b610d3e565b61121260a083018a6111ac565b61121f60c0830189610d8a565b61122c60e0830188610d69565b61123a610100830187610d69565b611248610120830186610d69565b611256610140830185610d4d565b611264610160830184610c9e565b9d9c50505050505050505050505050565b61127e81611096565b811461128957600080fd5b50565b60008135905061129b81611275565b92915050565b6112aa81610c92565b81146112b557600080fd5b50565b6000813590506112c7816112a1565b92915050565b600061018082840312156112e4576112e3610e15565b5b6112ef610180610e8b565b905060006112ff84828501610ce9565b600083015250602061131384828501610ce9565b602083015250604061132784828501610ce9565b604083015250606061133b84828501610ce9565b606083015250608061134f84828501610ce9565b60808301525060a06113638482850161128c565b60a08301525060c061137784828501610ee9565b60c08301525060e061138b84828501610ebd565b60e0830152506101006113a084828501610ebd565b610100830152506101206113b684828501610ebd565b610120830152506101406113cc84828501610c50565b610140830152506101606113e2848285016112b8565b6101608301525092915050565b6000610180828403121561140657611405610c25565b5b6000611414848285016112cd565b91505092915050565b60006020828403121561143357611432610c25565b5b600061144184828501610ce9565b91505092915050565b600082825260208201905092915050565b600061146682610ff7565b611470818561144a565b9350611480818560208601611013565b61148981610e1a565b840191505092915050565b600060408201905081810360008301526114ae818561145b565b90506114bd60208301846111ac565b9392505050565b6114cd81610cc8565b82525050565b6114dc81610d78565b82525050565b6114eb81610d5c565b82525050565b6114fa81610c2f565b82525050565b61150981610c92565b82525050565b6101808201600082015161152660008501826114c4565b50602082015161153960208501826114c4565b50604082015161154c60408501826114c4565b50606082015161155f60608501826114c4565b50608082015161157260808501826114c4565b5060a082015161158560a08501826110a8565b5060c082015161159860c08501826114d3565b5060e08201516115ab60e08501826114e2565b506101008201516115c06101008501826114e2565b506101208201516115d56101208501826114e2565b506101408201516115ea6101408501826114f1565b506101608201516115ff610160850182611500565b50505050565b60006101808201905061161b600083018461150f565b92915050565b600080fd5b600080fd5b600067ffffffffffffffff82111561164657611645610e2b565b5b61164f82610e1a565b9050602081019050919050565b82818337600083830152505050565b600061167e6116798461162b565b610e8b565b90508281526020810184848401111561169a57611699611626565b5b6116a584828561165c565b509392505050565b600082601f8301126116c2576116c1611621565b5b81356116d284826020860161166b565b91505092915050565b600080604083850312156116f2576116f1610c25565b5b600083013567ffffffffffffffff8111156117105761170f610c2a565b5b61171c858286016116ad565b925050602061172d8582860161128c565b9150509250929050565b7f4e487b7100000000000000000000000000000000000000000000000000000000600052602260045260246000fd5b6000600282049050600182168061177e57607f821691505b60208210810361179157611790611737565b5b50919050565b60008190508160005260206000209050919050565b60006020601f8301049050919050565b600082821b905092915050565b6000600883026117f97fffffffffffffffffffffffffffffffffffffffffffffffffffffffffffffffff826117bc565b61180386836117bc565b95508019841693508086168417925050509392505050565b6000819050919050565b600061184061183b61183684610cc8565b61181b565b610cc8565b9050919050565b6000819050919050565b61185a83611825565b61186e61186682611847565b8484546117c9565b825550505050565b600090565b611883611876565b61188e818484611851565b505050565b5b818110156118b2576118a760008261187b565b600181019050611894565b5050565b601f8211156118f7576118c881611797565b6118d1846117ac565b810160208510156118e0578190505b6118f46118ec856117ac565b830182611893565b50505b505050565b600082821c905092915050565b600061191a600019846008026118fc565b1980831691505092915050565b60006119338383611909565b9150826002028217905092915050565b61194c82610ff7565b67ffffffffffffffff81111561196557611964610e2b565b5b61196f8254611766565b61197a8282856118b6565b600060209050601f8311600181146119ad576000841561199b578287015190505b6119a58582611927565b865550611a0d565b601f1984166119bb86611797565b60005b828110156119e3578489015182556001820191506020850194506020810190506119be565b86831015611a0057848901516119fc601f891682611909565b8355505b6001600288020188555050505b505050505050565b7f4e487b7100000000000000000000000000000000000000000000000000000000600052601160045260246000fd5b6000611a4f82610cc8565b9150611a5a83610cc8565b9250828201905080821115611a7257611a71611a15565b5b92915050565b6000611a8382610cc8565b9150611a8e83610cc8565b9250828203905081811115611aa657611aa5611a15565b5b92915050565b7f416d6f756e742070616964206d757374206265206c657373207468616e206f7260008201527f20657175616c20746f20616d6f756e7420746f20706179000000000000000000602082015250565b6000611b0860378361144a565b9150611b1382611aac565b604082019050919050565b60006020820190508181036000830152611b3781611afb565b9050919050565b6000611b4982610d5c565b9150611b5483610d5c565b9250828201905060ff811115611b6d57611b6c611a15565b5b9291505056fea26469706673582212209a5af7338a0e7472ecd63b4b9cbe15c289656784517d804d4a8f368e3828fa0c64736f6c63430008140033",
  "linkReferences": {},
  "deployedLinkReferences": {}
}